:020000040800F2
:10000000FCFF00200D170000051700000517000079
:100010000517000005170000051700000517000070
:100020000517000005170000051700000517000060
:100030000517000005170000051700000517000050
:100040000517000005170000051700000517000040
:100050000517000005170000051700000517000030
:100060000517000005170000051700000517000020
:100070000517000005170000051700000517000010
:100080000517000005170000051700000517000000
:1000900005170000051700000517000005170000F0
:1000A00005170000051700000517000005170000E0
:1000B00005170000051700000517000005170000D0
:1000C00005170000051700000517000005170000C0
:1000D00005170000051700000517000005170000B0
:1000E00005170000051700000517000005170000A0
:1000F0000517000005170000051700000517000090
:10010000051700000517000005170000051700007F
:10011000051700000517000005170000051700006F
:10012000051700000517000005170000051700005F
:10013000051700000517000005170000051700004F
:10014000051700000517000005170000051700003F
:1001500081B00248006801B0704700BFA4000020D1
:1001600083B0CDF800E000F0FF031A09104603F059
:100170000F02134614E0194A02921FE0184A029235
:100180001CE0184A029219E0174A029216E0174A38
:10019000029213E0164A029210E0164A02920DE013
:1001A0000028E8D00128E9D00228EAD00328EBD0C3
:1001B0000428ECD00528EDD00628EED0012212B29A
:1001C0009A40ADF8042002980A46BDF8041000F0E9
:1001D000EFFADDF800E003B0704700BF000801400F
:1001E000000C0140001001400014014000180140C3
:1001F000001C01400020014081B0194900EA0101C2
:10020000084600220EE0042022E0082020E0102012
:100210001EE020201CE040201AE0802018E040F280
:10022000001015E00F498842EDD00F498842ECD00C
:100230000E498842EBD00E498842EAD00D498842E7
:10024000E9D00D498842E8D00C498842E7D01046F1
:100250000B49096841EA000209490A6001B0704788
:1002600000FCFFFF00080140000C014000100140AD
:100270000014014000180140001C01400020014012
:100280001810024081B0ADF800100146BDF8000022
:100290000B68C3F3C01202B9FAE70A1D106001B07F
:1002A0007047FFFF81B000F20C02116000F20802FB
:1002B0001368C3F3000202B9F8E700F20C021268F7
:1002C00090B201B07047FFFF82B0CDF800E0034666
:1002D00019460191FFF73CFF40F2E83100FB01F2C3
:1002E00001990A601F490978C1F30311C8B21E4978
:1002F00009180878C0B21A1D1968C140116019495F
:100300000988C1F3022188B2174909180878C0B2D8
:1003100003F20802191D0968C140116011490988DA
:10032000C1F3C22188B2104909180878C0B203F29B
:100330000C02191D0968C14011600A490988C1F3FE
:10034000813188B2094909180978C8B203F210024C
:1003500003F20C010968B1FBF0F11160DDF800E077
:1003600002B0704704100240081B0000FC1500009A
:1003700081B000230360CB009BB242EA0303046810
:100380009BB244EA03030360051D13141C462B684B
:1003900064F382032B6000F21C0500242B6864F3D5
:1003A000CB232B600124036864F38613036001B040
:1003B0007047FFFF81B0CDF800E081B20348FFF73E
:1003C00071FFDDF800E001B0704700BF003C004065
:1003D00081B0CDF800E0012252B23E490A6000F23D
:1003E00068010B686FF0006103EA0102144603F034
:1003F0000061C90E0B4602F00041B1F1004F02D17D
:1004000035490A6801E035490A6804F47021090C8D
:100410000E464FF6FF7104EA01010D4604F4401147
:10042000B1F5401F0DD16FF0706102EA01010E4677
:100430002A490A686FF070610A4028490A6032460A
:1004400016E004F48011B1F5801F09D14FF00301CB
:10045000B140C94302EA010141F070610A4607E078
:10046000610D090105FA01F1C9430A4042F07062C9
:100470002BB1610D090105FA01F10A43FFE704F010
:100480000041B1F1004F02D113490A6001E0134964
:100490000A6040F2000A81464FEA8A0109EB010135
:1004A0000968B1F1FF3F10D009F134014FEA8A0326
:1004B000C91809680A4609EB03010968084611468C
:1004C000FFF74EFE0AF1010AE6E7DDF800E001B0B1
:1004D000704700BF000342421C000140040001407D
:1004E00081B0CDF800E081B20348FFF7CBFEDDF824
:1004F00000E001B0704700BF0048004089B0CDF86F
:1005000000E0834698B28C46BDF824100A9E04ACE5
:10051000ADF80410ADF808002046FFF7D5FEBDF891
:100520000800BDF80410644CA34512D101256DB23A
:10053000624C2560624D634C2560634D634C2560C1
:10054000634D644C2560644D644C2560079C0394A6
:1005500056E0634CA34512D101256DB2614C256074
:10056000614D584C2560614D584C2560604D594C8B
:100570002560604D594C2560069C039440E05E4C1C
:10058000A34512D101256DB25C4C25605C4D4D4CEC
:1005900025605C4D4D4C25605B4D4E4C25605B4DA0
:1005A0004E4C2560069C03942AE0594CA34512D179
:1005B00001256DB2574C2560574D424C2560574D73
:1005C000424C2560564D434C2560564D434C2560AA
:1005D000069C039414E0544CA34511D101256DB23F
:1005E000524C2560524D374C2560524D374C25609A
:1005F000514D384C2560514D384C2560069C039474
:10060000ADF80410ADF808003046FFF7E1FEBDF884
:100610000800BDF804100BF1100500242C600BF14C
:1006200010052C680C432C600BF10C0500242C6089
:1006300018B140F4806080B2FFE70BF10C052C6824
:1006400004432C600BF10C060125346865F34D342E
:1006500034600BF10C060125346865F3C304346083
:100660000BF10C060125346865F3820434600BF14C
:10067000140500242C60039D192465434FEA8C0463
:10068000B5FBF4F76424B7FBF4F4260135096424C0
:100690006C433C1B240104F232056424B5FBF4F4E2
:1006A00004F00F0446EA04040BF10805A4B22C6020
:1006B000DDF800E009B070470038014038034242DD
:1006C00041070000B0000020FFFFFFFFB400002042
:1006D000FFFFFFFFB8000020FFFFFFFFBC0000206E
:1006E00000440040C40342425D070000FFFFFFFFDB
:1006F000FFFFFFFFFFFFFFFF00480040C80342422B
:10070000E1040000FFFFFFFFFFFFFFFFFFFFFFFF10
:10071000004C0040CC034242A5090000FFFFFFFF50
:10072000FFFFFFFFFFFFFFFF00500040D0034242EA
:10073000C1090000FFFFFFFFFFFFFFFFFFFFFFFFFB
:1007400081B0CDF800E081B20348FFF79BFDDDF8F2
:1007500000E001B0704700BF0038014081B0CDF823
:1007600000E081B20348FFF78DFDDDF800E001B045
:10077000704700BF0044004081B0CDF800E081B276
:100780000348FFF78FFDDDF800E001B0704700BFC0
:100790000038004081B0CDF800E081B20348FFF797
:1007A00081FDDDF800E001B0704700BF003001407E
:1007B00081B0CDF800E08CB21546774B00EA030318
:1007C0001E461846FFF718FDB4F1FF0F0CD1734B0E
:1007D0009D4203D14FF033333360D9E0422D03D132
:1007E0004FF044333360D3E04FF6FF739C4214D193
:1007F0006A4B9D4207D14FF033333360341D4FF0C5
:1008000033332360C4E0422D07D14FF044333360CB
:10081000341D4FF044332360BAE00021002005F07E
:1008200001030BB100211DE005F0020333B105F413
:10083000C0730BB1082100E0042113E005F00403AC
:1008400033B105F020030BB1042100E0002109E0E1
:1008500005F0080333B105F020030BB10C2100E0D3
:100860000821FFE74E4B05EA03030BB1032009E023
:1008700005F400730BB1022004E005F480630BB1B2
:100880000120FFE705F00C030BB10143FFE704F083
:10089000FF039BB2002B3BD0376800201FFA84F87F
:1008A00032462E4608282CD24FF0010303FA00F4FA
:1008B00008EA0403A34222D185004FF00F03AB40A6
:1008C000DB4307EA030401FA05F344EA03031D4688
:1008D00006F48173B3F5817F05D102F214044FF061
:1008E00001038340236006F08203822B05D102F2CC
:1008F00010044FF00103834023602F46FFE7401CA4
:10090000D0E717601FFA88F00F463146164602E01E
:100910000F462946A0B2B0F1FF0F39D9331DD3F8E5
:1009200000800022082A30D202F208044FF00103AE
:1009300003FA04F400EA0403A34224D195004FF023
:100940000F03AB40DB4308EA030807FA05F348EA64
:10095000030801F48173B3F5817F07D106F2140512
:1009600002F208044FF00103A3402B6001F0820360
:10097000822B07D106F2100502F208044FF00103A2
:10098000A3402B60FFE7521CCCE7331DC3F8008067
:10099000DDF800E001B0704700FCFFFF1400080024
:1009A0000008080081B0CDF800E081B20348FFF7ED
:1009B00069FCDDF800E001B0704700BF004C00406A
:1009C00081B0CDF800E081B20348FFF75BFCDDF8B1
:1009D00000E001B0704700BF0050004081B0CDF88A
:1009E00000E081B20348FFF75DFCDDF800E001B0F4
:1009F000704700BF0038004083B0CDF800E08AB2F5
:100A0000014690B283B2421E90B26BB10A78D4B262
:100A1000ADF804000291A0B2054C2468A0470299E9
:100A2000BDF80400491CEDE7DDF800E003B07047B5
:100A30009000002081B0CDF800E0019D2C4610B45C
:100A400008B493B28AB201460348FFF757FD02B0DB
:100A5000DDF800E001B070470038014081B0CDF80A
:100A600000E081B20348FFF71DFCDDF800E001B0B3
:100A7000704700BF003C004081B0CDF800E0019D10
:100A80002C4610B408B493B28AB201460348FFF76B
:100A900035FD02B0DDF800E001B0704700440040D1
:100AA00083B0CDF800E08DF8040002910B4C0C4BA4
:100AB0001C600C4C0C4B1C60012464B20B4B1C6082
:100AC0001046FFF785FC029A9DF804100848FFF7CE
:100AD0004FFCDDF800E003B0704700BF5D0A000086
:100AE000A8000020B5030000AC000020BC03424277
:100AF000003C004081B0CDF800E0044A89B2FFF725
:100B000057FEDDF800E001B0704700BF1400080098
:100B100081B0CDF800E04FF0420289B2FFF748FE05
:100B2000DDF800E001B0704781B0CDF800E0019D34
:100B30002C4610B408B493B28AB201460348FFF7BA
:100B4000DDFC02B0DDF800E001B070470048004075
:100B500081B0CDF800E081B20348FFF7A3FBDDF8D8
:100B600000E001B0704700BF0030014081B0024991
:100B7000086001B0704700BFAC01224281B0024959
:100B8000086001B0704700BFB081224281B00249C5
:100B9000086001B0704700BFB081224281B00249B5
:100BA000086001B0704700BFB001224281B0024925
:100BB000086001B0704700BF9401214281B0024932
:100BC000086001B0704700BF8C01224281B0024929
:100BD000086001B0704700BFA801224281B00249FD
:100BE000086001B0704700BFB881224281B002495D
:100BF000086001B0704700BF9881224282B0CDF8F2
:100C000000E001A9062008700020074C2468A047D6
:100C100001A80121FFF7F0FE0120034C2468A04742
:100C2000DDF800E002B070479800002082B0CDF8F7
:100C300000E001A9042008700020074C2468A047A8
:100C400001A80121FFF7D8FE0120034C2468A0472A
:100C5000DDF800E002B070479800002083B0CDF8C6
:100C600000E0ADF808100190BDF80830BDF808208C
:100C7000521EADF808204BB10020064C2468A04756
:100C8000019A1070019A521C0192EDE7DDF800E024
:100C900003B070479400002081B0CDF800E00178E7
:100CA000CCB2A0B2034C2468A0470020DDF800E0DD
:100CB00001B070478C00002081B00249086001B08B
:100CC000704700BF9881214281B00249086001B09D
:100CD000704700BF9481224282B0CDF800E001AAA3
:100CE00001211170511C08700020084C2468A04795
:100CF00001A908460221FFF77FFE0120034C24686A
:100D0000A047DDF800E002B0704700BF9800002067
:100D100081B00249086001B0704700BF9C81214248
:100D200081B00249086001B0704700BF9C81214238
:100D300081B0CDF800E0094902B440F2000340F26E
:100D4000000240F20001FFF775FE01B0044A0549B8
:100D50000A600020DDF800E001B07047D019000003
:100D6000410700008C00002081B0CDF800E0094967
:100D700002B440F2000340F2000240F20001FFF72B
:100D80007BFE01B0044A05490A600020DDF800E05E
:100D900001B07047641900005D0700008C0000205E
:100DA00081B0CDF800E0094902B440F2000340F2FE
:100DB000000240F20001FFF75FFE01B0044A05495E
:100DC0000A600020DDF800E001B0704764190000FF
:100DD0005D0700008C00002081B000F208010A6865
:100DE00006490A60011D0A6805490A6000F21801F7
:100DF0000A6804490A6001B0704700BF98000020EB
:100E00009C000020A000002081B0026803490A6015
:100E1000011D0A6802490A6001B070479000002075
:100E20009400002081B0CDF800E0A9E0012905D1AF
:100E300040F220016548FFF76BFE04E040F220011C
:100E40006248FFF757FEBBE0012905D140F20801D7
:100E50005F48FFF75DFE04E040F208015C48FFF7E1
:100E600049FEADE0012905D144F200015948FFF7E0
:100E70004FFE04E044F200015648FFF73BFE9FE0BE
:100E8000012905D140F200415148FFF741FE04E03D
:100E900040F200414E48FFF72DFE91E0012905D1B7
:100EA00040F600014A48FFF733FE04E040F6000137
:100EB0004748FFF71FFE83E0012905D141F20001F9
:100EC0004348FFF725FE04E041F200014048FFF7E8
:100ED00011FE75E0012905D141F200013D48FFF7FF
:100EE00017FE04E041F200013A48FFF703FE67E015
:100EF000012905D140F600013648FFF709FE04E05C
:100F000040F600013348FFF7F5FD59E0012905D10E
:100F100040F240012F48FFF7FBFD04E040F24001A2
:100F20002C48FFF7E7FD4BE0012905D140F22001F5
:100F30002848FFF7EDFD04E040F220012548FFF7C7
:100F4000D9FD3DE0012905D140F240012248FFF7DB
:100F5000DFFD04E040F240011F48FFF7CBFD2FE02A
:100F6000012905D140F280011B48FFF7D1FD04E0C3
:100F700040F280011848FFF7BDFD21E0012020E08C
:100F800000283FF453AF01283FF45EAF02283FF43E
:100F900069AF03283FF474AF04283FF47FAF0528FE
:100FA0003FF48AAF06283FF495AF0728A0D0082861
:100FB000ACD00928B8D00A28C4D00B28D0D0DDE79F
:100FC0000020DDF800E001B0704700BF00080140DC
:100FD0000010014000140140000C014081B0CDF828
:100FE00000E0A9E0012905D140F210016548FFF7B2
:100FF0008FFD04E040F210016248FFF77BFDBBE08B
:10100000012905D140F204015F48FFF781FD04E0AA
:1010100040F204015C48FFF76DFDADE0012905D108
:1010200042F200015948FFF773FD04E042F200016B
:101030005648FFF75FFD9FE0012905D140F20041CE
:101040005148FFF765FD04E040F200414E48FFF7CC
:1010500051FD91E0012905D140F600014A48FFF712
:1010600057FD04E040F600014748FFF743FD83E0E9
:10107000012905D141F200014348FFF749FD04E091
:1010800041F200014048FFF735FD75E0012905D127
:1010900040F201013B48FFF73BFD04E040F2010153
:1010A0003848FFF727FD67E0012905D140F20041EC
:1010B0003648FFF72DFD04E040F200413348FFF7CA
:1010C00019FD59E0012905D140F200212F48FFF711
:1010D0001FFD04E040F200212C48FFF70BFD4BE020
:1010E000012905D140F200112848FFF711FD04E065
:1010F00040F200112548FFF7FDFC3DE0012905D134
:1011000040F240012248FFF703FD04E040F24001B5
:101110001F48FFF7EFFC2FE0012905D140F28001C5
:101120001B48FFF7F5FC04E040F280011848FFF788
:10113000E1FC21E0012020E000283FF453AF01282A
:101140003FF45EAF02283FF469AF03283FF474AF69
:1011500004283FF47FAF05283FF48AAF06283FF408
:1011600095AF0728A0D00828ACD00928B8D00A2805
:10117000C4D00B28D0D0DDE70020DDF800E001B0BE
:10118000704700BF000801400010014000140140FA
:10119000000C014081B0CDF800E0011D0A68016833
:1011A000C8B21146034AFFF77BFC0020DDF800E0DF
:1011B00001B070473C1A000081B0CDF800E0094949
:1011C00002B440F2000340F2000240F20001FFF7D7
:1011D000ABFC01B0044A05490A600020DDF800E0DC
:1011E00001B07047F8180000E10400008C000020F6
:1011F00081B0CDF800E0011D0A680168C8B211464F
:10120000034AFFF74DFC0020DDF800E001B0704715
:101210003C1A000081B00249086001B0704700BF6D
:101220009001214281B00249086001B0704700BFBF
:101230008001214281B00249086001B0704700BFBF
:10124000B001224281B00249086001B0704700BF7E
:10125000AC01224281B00249086001B0704700BF72
:10126000A881224281B00249086001B0704700BFE6
:101270009881214281B00249086001B0704700BFE7
:10128000A081224281B00249086001B0704700BFCE
:10129000A481224281B00249086001B0704700BFBA
:1012A0008801224281B00249086001B0704700BF46
:1012B000B481224281B00249086001B0704700BF8A
:1012C000A801224281B0CDF800E00120034C24683F
:1012D000A047DDF800E001B0704700BF9800002093
:1012E00083B0CDF800E0024610460D228DF80820AC
:1012F0000A228DF809201FE0FFF7CEFC23E00278D8
:101300002AB10190FFF7C8FC0198401CF7E71AE0EA
:1013100002782AB10190FFF7BFFC0198401CF7E763
:1013200002AA1046FFF7B8FC0DF109021046FFF7BC
:10133000B3FC08E0062007E00029DDD00129DED05B
:101340000229E5D0F6E70020DDF800E003B07047A1
:1013500084B0CDF800E0ADF80C20019102AD03237C
:101360002B706C1C030ADBB22370AC1C00F0FF0373
:10137000DBB2237000200A4C2468A04702AB032193
:101380001846FFF739FBBDF80C100198FFF766FC13
:101390000120034C2468A047DDF800E004B070474A
:1013A0009800002084B0CDF800E0ADF80C20019149
:1013B00002AD02232B706C1C030ADBB22370AC1C41
:1013C00000F0FF03DBB2237000200A4C2468A04722
:1013D00002AB03211846FFF70FFBBDF80C10019874
:1013E000FFF70AFB0120034C2468A047DDF800E06A
:1013F00004B070479800002081B0CDF800E05FFA9B
:1014000081F95FFA82FA0FE05FFA8AF15FFA89F0F8
:10141000FFF7E4FD0DE05FFA8AF15FFA89F0FFF76C
:1014200001FD06E0012004E00028EDD00128F2D003
:10143000F8E7DDF800E001B07047FFFF81B0CDF8BC
:1014400000E011E00846FFF7B7FE16E00846FFF798
:101450008BFC12E00846FFF76BFC0EE00846FFF736
:101460009FFC0AE0012008E00028EBD00128EDD025
:101470002028EFD03028F1D0F4E7DDF800E001B00B
:101480007047FFFF81B0CDF800E003460846FFF744
:10149000BBFC1846FFF7A0FCDDF800E001B0704788
:1014A00081B0CDF800E08B4609E05846FFF772FEA8
:1014B0000AE05846FFF79CFE06E0012004E0002801
:1014C000F3D00128F5D0F8E7DDF800E001B070476F
:1014D00083B0CDF800E002AA02201070511C002059
:1014E0000870911C002008700020FFF7F5FBFFF743
:1014F00085FB0020114C2468A04702A80321FFF7B8
:101500007BFA02A9002008700021B1F5004F0AD82B
:1015100002A8ADF804100121FFF76EFABDF804101F
:10152000491C89B2F1E70120044C2468A047FFF769
:101530007DFBDDF800E003B0704700BF980000209D
:1015400081B04FF000094FF0000CBDEB0A0F04DC36
:10155000BDEB0B0F01DBD446EA464BF8049BBBEB1B
:101560000A0FFAD1BCEB0A0F05DDE246D9F800B04C
:101570000BF1040BF1E701B07047FFFF81B01CF8DD
:10158000019B0BF8019BBBEB0A0FF8D101B0704730
:1015900081B01548006840F001011348016013490B
:1015A0001348016010480168124801400E4801606C
:1015B0000D4801686FF4802001400B4801600C4821
:1015C00001686FF4FE0001400948016006480168A7
:1015D0006FF0A0500140044801604FF00001064840
:1015E000016001B0704700BF001002400000FFF032
:1015F00004100240FFFFF6FE2C1002400204060811
:1016000081B0CDF800E015480221FFF769FE0922FC
:10161000134940F25010FFF7C5FE12480221FFF7B0
:101620005FFE0922104940F25010FFF791FE0F486B
:101630000121FFF755FE02210B48FFF751FE41F64D
:10164000FF27C0F2B70700BF00BF7F1EFDD100BF5C
:1016500000BF00BFDDF800E001B0704700000020CF
:10166000360000204000002082000020760000208C
:1016700081B0CDF800E007490748FFF703FFFFF707
:1016800021FEFFF725FFFFF7B9FADDF800E001B012
:10169000704700BF201B0000A81A0000FFFFFFFFDB
:1016A00081B0CDF800E0002206210020FFF7A4FE63
:1016B000002202210020FFF79FFE0C480146002077
:1016C000FFF7EEFE42F280512020FFF7B7FE44F60E
:1016D0007F77C0F2120700BF00BF7F1EFDD100BFA1
:1016E00000BF00BFDDF800E001B07047181B00002C
:1016F00081B002490248016001B070474019010001
:10170000A400002081B0FEE701B0704781B000F076
:101710000FF800F049FAFFF7EBFF00F005FAFFF7CA
:10172000BFFFFFF7A5FFFFF76BFFFCE7FEE7FFFF3B
:1017300081B0CDF800E0464A464B474C47494BF64E
:101740008030814206D94648006840F00201444892
:10175000016011E045F6C050814206D9404800685A
:1017600040F001013E48016006E03D4801686FF02D
:10177000070001403A480160FFF70AFF394803605B
:1017800039480460394802EA00013948016002F032
:10179000010040B119463648006800F002000028F8
:1017A00000D1F8E700E0194602F4803040B10B4662
:1017B0002F48006800F40030002800D1F8E700E06E
:1017C0000B4602F0805068B12948006840F0805113
:1017D000274801602648006800F00050002800D12A
:1017E000F8E7FFE702F0806078B12148006840F038
:1017F00080611F48016011461A461D48006800F0CC
:101800000060002800D1F8E701E011461A4601F017
:10181000807070B11648006840F080711448016013
:1018200011461348006800F0007000B9F9E70A4655
:10183000FFE70C48006800F00C01900000F00C007D
:10184000814200D0F5E7DDF800E001B0704700BF4D
:101850008100010502841D004406010040190100B9
:1018600000200240041002402C100240FFFF0F0035
:101870000010024057726974696E67204D696B727F
:101880006F4520746F2020466C617368206D656D14
:101890006F72792C2066726F6D206164647265735B
:1018A00073203078303135303A004D696B726F45B6
:1018B0000D0A000052656164696E67203920627903
:1018C000746573206F6620466C617368206D656D6A
:1018D0006F72792C2066726F6D206164647265731B
:1018E00073203078303135303A00446174612072B1
:1018F0006561643A2000FFFF3800000039000000F5
:10190000FFFFFFFF000000000000000000000000DB
:1019100000000000000000000000000000000000C7
:101920000000000000000000000000001808000097
:10193000180000000000000000000000000000008F
:101940000000000000000000000000000000000097
:101950000000000000000000000000000000000087
:10196000300014083500000036000000FFFFFFFFC4
:101970000000000000000000000000000000000067
:101980000000000000000000000000000000000057
:10199000000000000000000018080000180000000F
:1019A0000000000000000000000000000000000037
:1019B0000000000000000000000000000000000027
:1019C0000000000000000000000000000800000807
:1019D000090000000A000000FFFFFFFF00000000F8
:1019E00000000000000000000000000000000000F7
:1019F00000000000000000000000000000000000E7
:101A0000000000001808000018000000000000009E
:101A100000000000000000000000000000000000C6
:101A200000000000000000000000000000000000B6
:101A30000000000000000000040000002A00000078
:101A40002B0000002C000000FFFFFFFF0000000043
:101A50000000000000000000000000000000000086
:101A60000000000000000000000000000000000076
:101A70001808000018080000180800000000000006
:101A80000000000000000000000000000000000056
:101A90000000000000000000000000000000000046
:101AA000000000000011200815120000951200002F
:101AB000A5120000B512000045120000351200000A
:101AC000251200005512000085120000751200005A
:101AD00065120000210D0000FFFFFFFFFFFFFFFF69
:101AE000FFFFFFFFFFFFFFFFFFFFFFFFFFFFFFFF06
:101AF000FFFFFFFFFFFFFFFFFFFFFFFFFFFFFFFFF6
:101B0000FFFFFFFFFFFFFFFF0000000001020304D3
:101B1000010203040607080907000000040300008F
:101B2000B50300005D0A000000B5DFF814B0DFF86F
:101B300014A0DFF814C0FFF721FD00BD704700BFFF
:101B4000000000208200002074180000FFFFFFFF4B
:101B5000FFFFFFFFFFFFFFFFFFFFFFFFFFFFFFFF95
:101B6000FFFFFFFFFFFFFFFFFFFFFFFFFFFFFFFF85
:101B7000FFFFFFFFFFFFFFFFFFFFFFFFFFFFFFFF75
:101B8000FFFFFFFFFFFFFFFFFFFFFFFFFFFFFFFF65
:101B9000FFFFFFFFFFFFFFFFFFFFFFFFFFFFFFFF55
:101BA000FFFFFFFFFFFFFFFF00B5DFF810B0DFF81A
:101BB00010A0FFF7C5FC00BD704700BF000000206B
:101BC000C0000020FFFFFFFFFFFFFFFFFFFFFFFF41
:00000001FF
